:020000040000FA
:03000000020923CF
:10080000E4750F10750E27F50DF50C1208FFC29058
:10081000C291C292C293D2A0C2A1C287D294E4F57F
:100820000BF50AF509F508AF0FAE0EAD0DAC0CAB2C
:100830000BAA0AA909A808C3120912504EE4F50B25
:10084000F50AF509F508AF0FAE0EAD0DAC0CAB0B0C
:10085000AA0AA909A808C3120912501800E50B2416
:1008600001F50BE4350AF50AE43509F509E4350824
:10087000F50880D2E50B2401F50BE4350AF50AE40E
:100880003509F509E43508F508809CC294D287E45F
:10089000F50BF50AF509F508AF0FAE0EAD0DAC0C72
:1008A000AB0BAA0AA909A808C3120912400302083F
:1008B0001AE4F50BF50AF509F508AF0FAE0EAD0D0C
:1008C000AC0CAB0BAA0AA909A808C312091250184C
:1008D00000E50B2401F50BE4350AF50AE43509F5CA
:1008E00009E43508F50880D2E50B2401F50BE43561
:1008F0000AF50AE43509F509E43508F50880998513
:10090000A71012093912094312092F12094A85103A
:10091000A722EB9FF5F0EA9E42F0E99D42F0E89CA9
:1009200045F022787FE4F6D8FD7581100208007545
:10093000A60275A72075CC0222E4F5A775A48075E0
:0E094000D4802275A51875D5182275E34022C3
:00000001FF
