:020000040000FA
:03000000020AFCF5
:100800000209E4E86480F8E933E83360110460F039
:10081000ED33EC337009E8FCE9FDEAFEEBFF22045E
:1008200060DED3EB9FEA9EE99DE8C2E78CF0C2F759
:1008300095F0400CE8CCF8E9CDF9EACEFAEBCFFB25
:100840001209AF85D0F05804700320D5B3E80470C6
:10085000075002B2D50209EE92D5EC0460F7E4CC61
:10086000C0E0C398F8603B94186008400DD0E0FBEE
:100870000209C6E4FBFAC9FC8028E830E406E4C9B2
:10088000FBE4CAFCE830E305E4C9CACBFCE8540742
:100890006010F8C3E913F9EA13FAEB13FBEC13FC4D
:1008A000D8F130F52FC3E49CFCEF9BFFEE9AFEEDF0
:1008B00099FDD0E0FBEF4E4D4C701222DB03020994
:1008C000EBEC2CFCEF33FFEE33FEED33FDED30E7C8
:1008D000EB0209C6EF2BFFEE3AFEED39FDD0E0FB4F
:1008E00050130BBB00030209EEED13FDEE13FEEFF8
:1008F00013FFEC13FC0209C674F8CC6480CCC86406
:1009000080C8F58204604FC3EB9FF5F0EA9E42F089
:10091000E99D42F0E89C45F0603C501DE5825FFF98
:10092000E582D313CB5BCBF42B5582FB50280ABA5C
:10093000002409B9002008801DE5825BFBE582D315
:1009400013CF5FCFF4C3132F5582FF50090EBE00A3
:10095000050DBD00010CC3EB9FF5F0EA9E42F0E9E6
:100960009D42F0E89C45F06007CC4820E701B3ECDD
:100970002275F020800E75F010800575F0087D005E
:100980007E007F003392D530D5031209F9EC334055
:1009900010EF33FFEE33FEED33FDEC33FCD5F0ED1D
:1009A00022E5F0247EA2D513CC92E7CDCEFF22E93A
:1009B000D2E7C933E833F892D5EDD2E7CD33EC3343
:1009C000FC5002B2D522EC30E7100FBF000C0EBE77
:1009D00000080DBD00040BEB6014A2D5EB13FCED79
:1009E00092E7FD2274FFFCFDFEFF22E480F8A2D511
:1009F00074FF13FC7D80E480EFC3E49FFFE49EFE60
:100A0000E49DFDE49CFC22120AEFE4F50BF50AF5E7
:100A100009F508F50FF50E750D16750C4320821AB1
:100A2000AF0FAE0EAD0DAC0CE4FBFA79207841129D
:100A300008078F0F8E0E8D0D8C0C20831AAF0FAE12
:100A40000EAD0DAC0CE4FBFA792078C11208078FCB
:100A50000F8E0E8D0D8C0CE4F50BF50AF509F508DB
:100A6000AF0BAE0AAD09AC08EC120971AB0FAA0EC0
:100A7000A90DA80C1208F8601D401BE4FAF9F8E56E
:100A80000B2401F50BEA350AF50AE93509F509E801
:100A90003508F50880CAC294E4F50BF50AF509F5A6
:100AA00008AF0BAE0AAD09AC08EC120971AB0FAA86
:100AB0000EA90DA80C1208F8601D401BE4FAF9F805
:100AC000E50B2401F50BEA350AF50AE93509F509C4
:100AD000E83508F50880CAD294020A1D7590FF75A2
:100AE000A57075F2FF75D570E4F5EE75EDFF228502
:100AF000A710120ADC120B088510A722787FE4F6F3
:0C0B0000D8FD758110020A0775E3402241
:00000001FF
