:020000040000FA
:10000000022D0575A710E59854045398FB75A5FEBD
:1000100075A46875A3FE75A26875A3FE75A26843F2
:0900200098044298221232952244
:07002B00022DF71231B6228D
:10003300022C6E75A45075F1FE75D40F75FE0C225B
:10004300022EA8EF540FC454F0FEEF54F0C4540F23
:100053004EFF543325E025E0FEEF54CC1313543FF9
:0F0063004EFF545525E0FEEF54AAC3134EFF2263
:10007300023220E4F5A7758E0A75A71075A601F55F
:10008300A775892243885022022F47202020202051
:1000930066203D20256420487A00257300000A006D
:1000A3000020505020C0606010400000000000009D
:1000B300702070F810F830F870700000080080703D
:1000C3007070F070E0F8F8708870388880888870F5
:1000D300F070F078F88888888888F87000702000BD
:1000E3004000800008003000802010806000000085
:1000F300000000004000000000000030206000000D
:10010300000000000020505078C8902020202020BC
:100113000000000088608810308040088888606094
:1001230010004088088888889080808888201090F4
:1001330080D888888888888020888888888808402C
:1001430000105000200080000800487880000080E4
:1001530020000000000000004000000000000040FC
:100163002010400000000000002050F88010A04044
:100173004010A820000000089820082050F08010AC
:100183008888606020F820080888888088808080BC
:10019300882010A080A8C8888888888020888888BC
:1001A30050881040801088001070B07068704088CC
:1001B300B060309020D0B070F068B070E08888886C
:1001C3008888F8402010A80000000000002000509C
:1001D30070204000401070F800F80010A8201010A4
:1001E3009008F02070780000400010106888F080BC
:1001F30088F0F0B8F82010C080A8A888F088F070C4
:10020300208888A820502040401000000008C880A3
:100213009888E088C82010A020A8C8888898C8803B
:100223004088888850881080200810000000000053
:10023300000000F80840A8004010A820600000203B
:10024300C8202008F80888408808606020F820202B
:10025300A8F8888088808088882010A08088988863
:1002630080A8A008208888A85020404020100000C3
:100273000078888088F84078882010C020A8888873
:10028300F0788070408888A82078204020100000F3
:100293000000000000000050F09890002020202073
:1002A30020006040882040881088884088106020A3
:1002B30010004000A88888889080808888209090CB
:1002C3008088888880909008208850A88820804063
:1002D300101000000088888888804008882090A03B
:1002E3002088888880088008489850A85008404093
:1002F30020100000000000000020005020186800BB
:1003030010400000400060807070F8701070704002
:1003130070600040080080207088F070E0F8807002
:1003230088706088F8888870806888F02070205012
:100333008820F870087000FC0078F07078704070C6
:100343008870609070888870800880F030682050D2
:100353008870F830206000000000000000000000FA
:10036300000000000000000000000000000000008A
:10037300000000000000000000000000000000007A
:10038300000000000000000000000000000000006A
:10039300000000000000000000000000000000005A
:1003A300000000000000000000000000000000004A
:1003B300000000000000000000000000000000003A
:1003C30000000E000000000000000000003180006B
:1003D300000000000000000040400000000000009A
:1003E3000000008020000000000000000001001059
:1003F30000000000000000000200080000000000F0
:1004030000000002000800000000000000000400DB
:1004130004000000000000000004000200000000CF
:1004230000000000080002000000000000000008B7
:1004330000010000000000000000100001000000A7
:100443000000000000100000800000000000000019
:100453002000008000000000000000200000400099
:100463000000000000004000004000000000000009
:1004730000400000200000000000000040000020B9
:1004830000000000000000800000100000000000D9
:100493000000800000100000000000000080000049
:1004A3001000000000000001000000080000000030
:1004B300000001000000080000000000000200002E
:1004C300000800000000000002000000040000001B
:1004D300000000020000000400000000000004000F
:1004E30000000400000000000004000000020000FF
:1004F30000000000080000000200000000000008E7
:1005030000000001000000000000080000000100DE
:1005130000000000000800000001000000000000CF
:1005230010000000010000000000001000000000A7
:1005330080000000000010000000008000000000A8
:100543000020000000004000000000002000000028
:1005530000400000000000200000000040000000F8
:1005630000004000000000200000000000400000E8
:1005730000002000000000004000000000200000F8
:100583000000008000000000100000000000800058
:1005930000000010000000000080000000001000B8
:1005A3000000000100000000001000000000010036
:1005B3000000000008000000000100000000000827
:1005C300000000000200000000000800000000021C
:1005D3000000000000040000000002000000000012
:1005E30004000000000400000000000400000000FC
:1005F30004000000000002000000000400000000EE
:1006030000020000000008000000000002000000DB
:1006130000080000000000010000000008000000C6
:100623000000010000000010000000000000800036
:100633000000100000000000008000000010000017
:100643000000000080000000100000000000008097
:100653000000002000000000000040000000200017
:100663000000000000400000004000000000000007
:1006730020000000400000000000002000000040B7
:1006830000000000000020000000800000000000C7
:1006930000100000008000000000000010000001B6
:1006A300000000000000000800000100000000003E
:1006B3000000080000020000000000000008000025
:1006C300020000000000000004000002000000001F
:1006D300000000040000040000000000000004000B
:1006E30000040000000000000002000004000000FD
:1006F30000000000020000080000000000000001EC
:1007030000000800000000000000010000100000CD
:100713000000000000008000100000000000000046
:1007230000800020000000000000000040004000A6
:100733000000000000000040004000000000000036
:100743000000200080000000000000000020008066
:100753000000000000000000100100000000000085
:100763000000000802000000000000000000040474
:10077300000000000000000000031800000000005B
:100783000000000000E00000000000000000000086
:1007930000000000000000000000000000000FFF48
:1007A300FFFFFFF800000000000800000000080041
:1007B300000000000800000000080000000000081E
:1007C300000000000800000000000800000000080E
:1007D3000000000000080000000008000000000006
:1007E30008000000000800000000000800000000EE
:1007F30008000000000008000000000800000000DE
:1008030000080000000008000000000008000000CD
:1008130000080000000000080000000008000000BD
:1008230000000800000000080000000000080000AD
:10083300000008000000000008000000000800009D
:10084300000000080000000008000000000008008D
:10085300000000080000000000080000000008007D
:10086300000000000800000000080000000000086D
:10087300000000000800000000000800000000085D
:100883000000000000080000000008000000000055
:10089300080000000008000000000008000000003D
:1008A300080000000000080000000008000000002D
:1008B300000800000000080000000000080000001D
:1008C300000800000000000800000000080000000D
:1008D30000000800000000080000000000080000FD
:1008E30000000800000000000800000000080000ED
:1008F30000000008000000000800000000000800DD
:1009030000000008000000000008000000000800CC
:1009130000000000080000000008000000000008BC
:1009230000000000080000000000080000000008AC
:1009330000000000000800000000080000000000A4
:10094300080000000008000000000008000000008C
:10095300080000000000080000000008000000007C
:10096300000800000000080000000000080000006C
:10097300000800000000000800000000080000005C
:10098300000008000000000800000000000800004C
:10099300000008000000000008000000000800003C
:1009A300000000080000000008000000000008002C
:1009B300000000080000000000080000000008001C
:1009C300000000000800000000080000000000080C
:1009D30000000000080000000000080000000008FC
:1009E30000000000000800000000080000000000F4
:1009F30008000000000800000000000800000000DC
:100A030008000000000008000000000800000000CB
:100A130000080000000008000000000008000000BB
:100A230000080000000000080000000008000000AB
:100A3300000008000000000800000000000800009B
:100A4300000008000000000008000000000800008B
:100A5300000000080000000008000000000008007B
:100A6300000000080000000000080000000008006B
:100A7300000000000800000000080000000000085B
:100A8300000000000800000000000800000000084B
:100A93000000000000080000000008000000000043
:100AA300080000000008000000000008000000002B
:100AB300080000000000080000000008000000001B
:100AC300000800000000080000000000080000000B
:100AD30000080000000000080000000008000000FB
:100AE30000000800000000080000000000080000EB
:100AF30000000800000000000800000000080000DB
:100B030000000008000000000800000000000800CA
:100B130000000008000000000008000000000800BA
:100B230000000000080000000008000000000008AA
:100B3300000000000FFFFFFFFFF0000000000000B7
:100B430000000000000000000000000000000000A2
:100B53000000000000000000000000000000000092
:100B63000000000000000000000000000000000082
:100B73000000000000000000000000000000000072
:100B83000000000000000000000000000000000062
:100B93000010000000000000000000003000000012
:100BA30000000000000000700000000000000000D2
:100BB3000000D000000000000000000001900000D1
:100BC300000000000000000310000000000000000F
:100BD300000006100000000000000000000C1000E0
:100BE30000000000000000001810000000000000DA
:100BF3000000003010000000000000000000601042
:100C0300000000000000000000C010000000000011
:100C1300000000018010000000000000000003003D
:100C2300100000000000000000060010000000009B
:100C3300000000000C00100000000000000000187D
:100C43000010000000000000000030001000000051
:100C53000000000000600010000000000000000021
:100C6300C000100000000000000001800010000020
:100C7300000000000003000010000000000000005E
:100C830006000010000000000000000C000010002F
:100C93000000000000001800001000000000000029
:100CA3000030000010000000000000006000001091
:100CB30000000000000000C0000010000000000061
:100CC300000180000010000000000000030000008D
:100CD30010000000000000060000001000000000EB
:100CE30000000C00000010000000000000180000CD
:100CF30000100000000000003000000010000000A1
:100D03000000006000000010000000000000C000B0
:100D1300000010000000000001800000001000002F
:100D230000000003000000001000000000000600A7
:100D33000000001000000000000C00000000100084
:100D43000000000018000000001000000000003048
:100D53000000000010000000000060000000001010
:100D63000000000000C000000000100000000001AF
:100D730080000000001000000000030000000000DD
:100D8300100000000006000000000010000000003A
:100D93000C0000000000100000000018000000001C
:100DA30000100000000030000000000010000000F0
:100DB300006000000000001000000000C000000000
:100DC300000010000000018000000000001000007F
:100DD30000030000000000001000000006000000F7
:100DE300000000100000000C0000000000001000D4
:100DF3000000180000000000001000000030000098
:100E0300000000001000000060000000000000105F
:100E1300000000C00000000000001000000180007E
:100E230000000000001000000300000000000000AC
:100E330010000006000000000000001000000C007D
:100E43000000000000001000001800000000000077
:100E530000100000300000000000000010000060DF
:100E630000000000000000100000C00000000000AF
:100E730000001000018000000000000000100003CB
:100E83000000000000000000100006000000000049
:100E930000000010000C0000000000000000100023
:100EA30018000000000000000010003000000000E7
:100EB30000000000100060000000000000000010AF
:100EC30000C00000000000000000100180000000CE
:100ED30000000000001003000000000000000000FC
:100EE3001006000000000000000000100C000000CD
:100EF30000000000000010180000000000000000C7
:100F030000100000000000000000000000000000CE
:100F130000000000000000000000000000000000CE
:100F230000000000000000001000000000000000AE
:100F33000000001000000000000000000000380066
:100F43000000000000000000002800000000000076
:100F5300000000006C0000000000000000000044DE
:100F630000000000000000000000C60000000000B8
:100F730000000000008200000000000000000001EB
:100F830083000000000000000000010100000000D9
:100F930000000000000301800000000000000000CA
:100FA30002008000000000000000000600C00000F6
:100FB30000000000000004004000000000000000EA
:100FC300000C00600000000000000000080020008A
:100FD30000000000000000180030000000000000C6
:100FE3000000100010000000000000000030001896
:100FF30000000000000000002000080000000000C6
:1010030000000060000C0000000000000000400031
:10101300040000000000000000C000060000000003
:1010230000000000800002000000000000000180BA
:1010330000030000000000000001000001000000A8
:101043000000000003000001800000000000000217
:101053000000008000000000000006000000C00047
:101063000000000000040000004000000000000039
:101073000C000000600000000000000800000020D9
:101083000000000000001800000030000000000015
:1010930000100000001000000000000030000000FD
:1010A30018000000000000200000000800000000FD
:1010B3000000600000000C00000000000040000081
:1010C3000004000000000000C00000000600000053
:1010D300000000800000000200000000000180000A
:1010E30000000300000000000100000000010000F8
:1010F3000000000300000000018000000000020067
:10110300000000008000000000060000000000C096
:101113000000000004000000000040000000000C7C
:101123000000000000600000000008000000000054
:101133002000000000180000000000300000000044
:10114300100000000000100000000030000000004C
:10115300001800000000200000000000080000004C
:10116300006000000000000C0000000040000000D0
:1011730000000400000000C00000000000060000A2
:101183000000800000000000020000000180000059
:101193000000000300000001000000000000010047
:1011A30000000300000000000001800000020000B6
:1011B30000000000008000000600000000000000A6
:1011C300C0000004000000000000004000000C000C
:1011D30000000000000060000008000000000000A4
:1011E3000020000018000000000000003000001084
:1011F30000000000000000100000300000000000AC
:10120300000018000020000000000000000800009B
:1012130060000000000000000C000040000000001F
:10122300000000040000C0000000000000000600F1
:1012330000800000000000000002000180000000A8
:101243000000000003000100000000000000000196
:101253000003000000000000000001800200000005
:1012630000000000000080060000000000000000F5
:1012730000C004000000000000000000400C00005B
:1012830000000000000000600800000000000000F3
:1012930000002018000000000000000000301000D3
:1012A30000000000000000001030000000000000FB
:1012B300000000182000000000000000000008608B
:1012C3000000000000000000000C0000000000000F
:1012D300000000000000000000000000000000000B
:1012E30000000000000000000000000000000000FB
:1012F30000000000000000000000004000000000AB
:10130300000000000000400000000000000000009A
:1013130000601000000000000000000060180000E2
:1013230000000000000100A02800000000000000F1
:101333000100A028000000000000000180A0280098
:101343000000000000000280A02800000000000050
:10135300000280A028040000000000000280A028F2
:10136300040000000000000280A0280C0000000020
:1013730000000240A0280A0000000000020240A072
:10138300280A0000000000020240A0280A00000012
:10139300000006024090280A0000000000050240F9
:1013A30090280A000000000005024090280A00006F
:1013B30000000005024090481200000000000502F2
:1013C30040904812020000000005024090481202BB
:1013D30000000000050240904412030000000005D5
:1013E300024090441205000000000902409044129C
:1013F3000500000000090240904412048000000828
:10140300090240904412048000000C090241104478
:1014130012048000001409024110441204800000E9
:101423001409024110441104800000140902411000
:101433004411048000001409024110441104800087
:1014430000140882411044110480000014088441F0
:101453001044110480800032088441104411048038
:10146300C000220884211044110481400022088412
:1014730021104411088140002208842110441108DE
:1014830081200022088421104411084120102210D9
:101493008421104411084220382210842108442159
:1014A300084220282210842108442108422048228F
:1014B300108421084421084220CC221084210844AE
:1014C30021084210046210842108442108421104B7
:1014D3004210842108422108421204431084210847
:1014E3004221084212044110842108422108441475
:1014F300044110842108822108440C0641108422EF
:101503000882210844000241108422088220882492
:1015130000024110842208822088240002811044A2
:101523002208822088240003811048220882208810
:1015330024000101104822088220882400000110A1
:1015430048220882209024000001104822088220AB
:1015530090240000012048220882209028000001E6
:101563002048220882209028000001204812088287
:10157300209028000000A048120882209018000044
:1015830000A048120882209010000000A048120812
:1015930082409000000000A04812088240900000A2
:1015A3000000A048120882409000000000A04812EA
:1015B3000482409000000000C048120482405000A2
:1015C3000000004048120482405000000000002840
:1015D300120482405000000000002812050240500F
:1015E3000000000000281205014050000000000028
:1015F3002812050140600000000000281205014088
:101603002000000000002812050140200000000017
:101613000030120501400000000000001014050115
:10162300400000000000001014050140000000000D
:101633000000101405014000000000000000140524
:1016430001400000000000000014050140000000FC
:1016530000000000140500800000000000000014DA
:1016630005008000000000000000080500000000E5
:10167300000000000008030000000000000000005C
:10168300080200000000000000000000020000004B
:101693000000000000000000000000000000000047
:1016A300000000000000000010284400004428103F
:1016B3002040804020040201020407FF0831086330
:1016C300089508C708F9092B095C098E09BF09F0B9
:1016D3000A200A510A810AB00ADF0B0E0B3C0B6A7F
:1016E3000B970BC30BEF0C1B0C460C700C990CC225
:1016F3000CEA0D110D380D5D0D820DA60DC90DEB14
:101703000E0D0E2D0E4C0E6B0E880EA50EC00EDAAE
:101713000EF40F0C0F230F390F4E0F620F740F8649
:101723000F960FA50FB30FC00FCC0FD60FDF0FE728
:101733000FEE0FF40FF80FFB0FFD0FFE0FFD0FFB66
:101743000FF80FF40FEE0FE70FDF0FD60FCC0FC01C
:101753000FB30FA50F960F860F740F620F4E0F393D
:101763000F230F0C0EF40EDA0EC00EA50E880E6BAF
:101773000E4C0E2D0E0D0DEB0DC90DA60D820D5D3C
:101783000D380D110CEA0CC20C990C700C460C1B95
:101793000BEF0BC30B970B6A0B3C0B0E0ADF0AB064
:1017A3000A810A510A2009F009BF098E095C092B35
:1017B30008F908C708950863083107FF07CC079A9B
:1017C30007680736070406D206A1066F063E060D14
:1017D30005DD05AC057C054D051E04EF04C104932E
:1017E3000466043A040E03E203B7038D0364033B68
:1017F300031302EC02C502A0027B02570234021259
:1018030001F001D001B1019201750158013D01239D
:10181300010900F100DA00C400AF009B00890077E2
:1018230000670058004A003D00310027001E0016E3
:10183300000F000900050002000100000001000282
:1018430000050009000F0016001E00270031003DAF
:10185300004A0058006700770089009B00AF00C46E
:1018630000DA00F101090123013D015801750192DC
:1018730001B101D001F0021202340257027B02A02F
:1018830002C502EC0313033B0364038D03B703E2B6
:10189300040E043A0466049304C104EF051E054DC7
:1018A300057C05AC05DD060D063E066F06A106D2D6
:1018B300070407360768079A07CC0FFF0FFF0FFFD0
:1018C3000FFF0FFF0FFF0FFF0FFF0FFF0FFF0FFFA5
:1018D3000FFF0FFF0FFF0FFF0FFF0FFF0FFF0FFF95
:1018E3000FFF0FFF0FFF0FFF0FFF0FFF0FFF0FFF85
:1018F3000FFF0FFF0FFF0FFF0FFF0FFF0FFF0FFF75
:101903000FFF0FFF0FFF0FFF0FFF0FFF0FFF0FFF64
:101913000FFF0FFF0FFF0FFF0FFF0FFF0FFF0FFF54
:101923000FFF0FFF0FFF0FFF0FFF0FFF0FFF0FFF44
:101933000FFF0FFF0FFF0FFF0FFF0FFF0FFF0FFF34
:101943000FFF0FFF0FFF0FFF0FFF0FFF0FFF0FFF24
:101953000FFF0FFF0FFF0FFF0FFF0FFF0FFF0FFF14
:101963000FFF0FFF0FFF0FFF0FFF0FFF0FFF0FFF04
:101973000FFF0FFF0FFF0FFF0FFF0FFF0FFF0FFFF4
:101983000FFF0FFF0FFF0FFF0FFF0FFF0FFF0FFFE4
:101993000FFF0FFF0FFF0FFF0FFF0FFF0FFF0FFFD4
:1019A3000FFF0FFF0FFF0FFF0FFF0FFF0FFF0FFFC4
:1019B3000FFF0FFF0FFF0FFF0FFF000000000000DE
:1019C3000000000000000000000000000000000014
:1019D3000000000000000000000000000000000004
:1019E30000000000000000000000000000000000F4
:1019F30000000000000000000000000000000000E4
:101A030000000000000000000000000000000000D3
:101A130000000000000000000000000000000000C3
:101A230000000000000000000000000000000000B3
:101A330000000000000000000000000000000000A3
:101A43000000000000000000000000000000000093
:101A53000000000000000000000000000000000083
:101A63000000000000000000000000000000000073
:101A73000000000000000000000000000000000063
:101A83000000000000000000000000000000000053
:101A93000000000000000000000000000000000043
:101AA3000000000000000000000000000000000033
:101AB300000000000000000000000000000F001FF5
:101AC300002F003F004F005F006F007F008F009FDB
:101AD30000AF00BF00CF00DF00EF00FF010F011FC9
:101AE300012F013F014F015F016F017F018F019FB3
:101AF30001AF01BF01CF01DF01EF01FF020F021FA1
:101B0300022F023F024F025F026F027F028F029F8A
:101B130002AF02BF02CF02DF02EF02FF030F031F78
:101B2300032F033F034F035F036F037F038F039F62
:101B330003AF03BF03CF03DF03EF03FF040F041F50
:101B4300042F043F044F045F046F047F048F049F3A
:101B530004AF04BF04CF04DF04EF04FF050F051F28
:101B6300052F053F054F055F056F057F058F059F12
:101B730005AF05BF05CF05DF05EF05FF060F061F00
:101B8300062F063F064F065F066F067F068F069FEA
:101B930006AF06BF06CF06DF06EF06FF070F071FD8
:101BA300072F073F074F075F076F077F078F079FC2
:101BB30007AF07BF07CF07DF07EF07FF080F081FB0
:101BC300082F083F084F085F086F087F088F089F9A
:101BD30008AF08BF08CF08DF08EF08FF090F091F88
:101BE300092F093F094F095F096F097F098F099F72
:101BF30009AF09BF09CF09DF09EF09FF0A0F0A1F60
:101C03000A2F0A3F0A4F0A5F0A6F0A7F0A8F0A9F49
:101C13000AAF0ABF0ACF0ADF0AEF0AFF0B0F0B1F37
:101C23000B2F0B3F0B4F0B5F0B6F0B7F0B8F0B9F21
:101C33000BAF0BBF0BCF0BDF0BEF0BFF0C0F0C1F0F
:101C43000C2F0C3F0C4F0C5F0C6F0C7F0C8F0C9FF9
:101C53000CAF0CBF0CCF0CDF0CEF0CFF0D0F0D1FE7
:101C63000D2F0D3F0D4F0D5F0D6F0D7F0D8F0D9FD1
:101C73000DAF0DBF0DCF0DDF0DEF0DFF0E0F0E1FBF
:101C83000E2F0E3F0E4F0E5F0E6F0E7F0E8F0E9FA9
:101C93000EAF0EBF0ECF0EDF0EEF0EFF0F0F0F1F97
:101CA3000F2F0F3F0F4F0F5F0F6F0F7F0F8F0F9F81
:101CB3000FAF0FBF0FCF0FDF0FEF0000001F003F6D
:101CC300005F007F009F00BF00DF00FF011F013F97
:101CD300015F017F019F01BF01DF01FF021F023F7F
:101CE300025F027F029F02BF02DF02FF031F033F67
:101CF300035F037F039F03BF03DF03FF041F043F4F
:101D0300045F047F049F04BF04DF04FF051F053F36
:101D1300055F057F059F05BF05DF05FF061F063F1E
:101D2300065F067F069F06BF06DF06FF071F073F06
:101D3300075F077F079F07BF07DF07FF081F083FEE
:101D4300085F087F089F08BF08DF08FF091F093FD6
:101D5300095F097F099F09BF09DF09FF0A1F0A3FBE
:101D63000A5F0A7F0A9F0ABF0ADF0AFF0B1F0B3FA6
:101D73000B5F0B7F0B9F0BBF0BDF0BFF0C1F0C3F8E
:101D83000C5F0C7F0C9F0CBF0CDF0CFF0D1F0D3F76
:101D93000D5F0D7F0D9F0DBF0DDF0DFF0E1F0E3F5E
:101DA3000E5F0E7F0E9F0EBF0EDF0EFF0F1F0F3F46
:101DB3000F5F0F7F0F9F0FBF0FDF0FFF0FDF0FBFF0
:101DC3000F9F0F7F0F5F0F3F0F1F0EFF0EDF0EBF23
:101DD3000E9F0E7F0E5F0E3F0E1F0DFF0DDF0DBF1B
:101DE3000D9F0D7F0D5F0D3F0D1F0CFF0CDF0CBF13
:101DF3000C9F0C7F0C5F0C3F0C1F0BFF0BDF0BBF0B
:101E03000B9F0B7F0B5F0B3F0B1F0AFF0ADF0ABF02
:101E13000A9F0A7F0A5F0A3F0A1F09FF09DF09BFFA
:101E2300099F097F095F093F091F08FF08DF08BFF2
:101E3300089F087F085F083F081F07FF07DF07BFEA
:101E4300079F077F075F073F071F06FF06DF06BFE2
:101E5300069F067F065F063F061F05FF05DF05BFDA
:101E6300059F057F055F053F051F04FF04DF04BFD2
:101E7300049F047F045F043F041F03FF03DF03BFCA
:101E8300039F037F035F033F031F02FF02DF02BFC2
:101E9300029F027F025F023F021F01FF01DF01BFBA
:101EA300019F017F015F013F011F00FF00DF00BFB2
:101EB300009F007F005F003F001F08000805081512
:101EC300082E084D0870089208AF08C408CE08C948
:101ED30008B4088D0856081107BF0767070B06B338
:101EE3000664062305F705E305EB0611065506B55B
:101EF300072F07BC085708F809960A2A0AA90B0DE9
:101F03000B4E0B670B540B150AAB0A1809630894A5
:101F130007B406CE05EE0520046E03E4038A0366C8
:101F2300037B03CC0454051105F907020820094576
:101F33000A610B680C4A0CFC0D730DA80D960D3C41
:101F43000C9E0BC20AB10978082606CB0578043E1D
:101F5300032D025501C00177018001DA0284037663
:101F630004A40602077D09050A850BEB0D240E2147
:101F73000ED30F320F370EE20E360D390BF90A83EB
:101F830008EA074205A0041802BD01A200D4005FBD
:101F930000480092013A0237037E04FF06A7086354
:101FA3000A1B0BBA0D2D0E600F440FCE0FF70FBD9A
:101FB3000F210E2D0CEB0B6B09C00800063F049498
:101FC300031401D200DE00420008003100BB019F70
:101FD30002D2044505E4079C09580B000C810DC887
:101FE3000EC50F6D0FB70FA00F2B0E5D0D420BE744
:101FF3000A5F08BD0715057C040602C601C9011D59
:1020030000C800CD012C01DE02DB0414057A06FAB8
:10201300088209FD0B5B0C890D7B0E250E7F0E8854
:102023000E3F0DAA0CD20BC10A87093407D90687C4
:10203300054E043D036102C302690257028C030388
:1020430003B50497059E06BA07DF08FD0A060AEEE4
:102053000BAB0C330C840C990C750C1B0B910ADF26
:102063000A110931084B076B069C05E7055404EA7E
:1020730004AB049804B104F2055605D506690707B5
:1020830007A8084308D0094A09AA09EE0A140A1C3A
:102093000A0809DC099B094C08F40898084007EE74
:1020A30007A90772074B07360731073B0750076D30
:1020B300078F07B207D107EA07FAE5402434F8E6A9
:1020C30005402278313007027834E475F001122795
:1020D300F60226312000EB7F2ED2008018EF540F3A
:1020E3002490D43440D4FF30040BEF24BFB41A003F
:1020F30050032461FFE541600215410544E5447046
:1021030002054330070D7831E475F0011227F6EF2D
:102113000227E402002E7403D2078003E4C207F50A
:10212300408B318A328933E4F541F543F544E54187
:1021330060077F201220F880F57542FFC201C200BC
:10214300C202C203C205C206C2081220C6FF700D36
:102153003007057F00122109AF44AE4322B4255F47
:10216300C2D5C2041220C6FF24D0B40A00501A7587
:10217300F00A784130D50508B6FF0106C6A426F655
:1021830020D5047002D20380D924CFB41A00EF50B3
:1021930004C2E5D204022309D20180C6D20080C062
:1021A300D20280BCD2D580BAD20580B47F2012205F
:1021B300F82002077401B5410040F11220BDFF125F
:1021C30020F8022131D208D20680951220BDFB12DD
:1021D30020BDFA1220BDF94A4B700679DA7A237BC7
:1021E300FF20022EE541602A7E008E827583001255
:1021F300264A60060EEE654270F0C2D5EBC0E0EAF7
:10220300C0E0E9C0E0EE122350D0E0F9D0E0FAD00C
:10221300E0FB122631FF60AAEBC0E0EAC0E0E9C0B0
:10222300E01220F8D0E02401F9D0E03400FAD0E045
:10223300FBE5420460DCD542D980877BFF7A2379B2
:102243004CD202809C791080027908C206C20880B1
:1022530008D2D5790A8004790AC2D5E5420470020E
:10226300F542E4FAFDFEFF1220BDFC7B08200113BA
:102273001220BDFD7B1030000A1220BDFE1220BDCE
:10228300FF7B20EC3382D592D55013C3E430000694
:102293009FFFE49EFEE42001039DFDE49CFCE4CB50
:1022A300F8C201EC700CCFCECDCCE824F8F870F373
:1022B3008017C3EF33FFEE33FEED33FDEC33FCEB5E
:1022C30033FB994002FB0FD8E9EB300105F8D0E06E
:1022D300C448B201C0E00AEC4D4E4F78207B007039
:1022E300C2EAB5420040BCC0E0122352D0F0D0E0B5
:1022F300200104C4C0E0C4B201C0F01220E1D0F058
:10230300D5F0EB02213112280621CE532248582161
:102313009F4C219B42224C4F22544422544921B4C6
:1023230043225A55223E46223E45223E4723FA5037
:1023330021A32D21A72E21CA2B21AB2321C8202382
:10234300E32A216348000021C23F3F3F00790AA2EC
:10235300D5200314300509B910020404B908010497
:10236300A2D52006025001042002689202B5410062
:102373005034C0E07F203003197F30A2027206720E
:1023830005500F1223A9C202C206C205C2087F303C
:10239300800F300503E9C0E01220F8300503D0E0D8
:1023A300F9D0E0B541CC3005177F30B9100C1220BD
:1023B300F87F583004077F788003B908031220F8A8
:1023C3003002057F2D0220F87F202008F87F2B2084
:1023D30006F322920280CF286E756C6C2900D2011D
:1023E3001220BD3001F8C201784130D50108F60250
:1023F30021632D504349581220BD2403B4050040E6
:1024030001E49023F5931220E9743A1220E9D203F0
:10241300754104022248E4900D8CF0E56AC394C828
:1024230050F9E56AC3941040030224FAE4F566F513
:102433006AE4F56B75F011E56AA42434F582E5F0DE
:102443003400F583E582256BF582E43583F583E477
:10245300F075F011E56AA42444F582E5F03400F543
:1024630083E4F0056BE56BB410CA7534FF75350072
:102473007536A07B017A0D797C122119E4F56B1274
:10248300320F8F6775F011E56AA42434F582E5F005
:102493003400F583E582256BF582E43583F583E526
:1024A30067F07534FF75350075369DE56A75F01173
:1024B300A42434F9740035F0753701F53889397B74
:1024C300017A0D797C1221197B017A0D797CE56AF9
:1024D300122F01856A63056BE56BC3941040A07BE3
:1024E300FF7A0079A112211F056AE56AC39410508F
:1024F30003022434756C01E56AC39410500302246B
:102503001E12318EE56AC4540FF566056CE56C75D1
:10251300F010A4FFC3E56A9FE5F06480F874809827
:10252300400302241EE4F56B75F011E56AA424341C
:10253300F582E5F03400F583E582256BF582E43519
:1025430083F583E4F075F011E56AA42444F582E58C
:10255300F03400F583E4F0056BE56BB410CA753411
:10256300FF7535007536A07B017A0D797C12211930
:10257300E4F56B12320F8F6775F011E56AA424340A
:10258300F582E5F03400F583E582256BF582E435C9
:1025930083F583E567F07534FF75350075369DE582
:1025A3006A75F011A42434F9740035F0753701F518
:1025B3003889397B017A0D797C1221197B017A0DD7
:1025C300797CE56C14C454F0FFC3E56A9F122F01B4
:1025D300856A63E563D39410400343E602E56545EA
:1025E300646031E4F5A753E6FD300F0FAF66FEAD2F
:1025F30063FC1229A08F66C20F8012300E0FAF66E4
:102603007E00AD637C00122A9B8F66C20EE4F564E4
:10261300F565D2AF056BE56BC394105003022576C5
:102623007BFF7A0079A112211F056A022510BB01E5
:102633000689828A83E0225002E722BBFE02E3225C
:1026430089828A83E49322BB010CE58229F582E522
:10265300833AF583E0225006E92582F8E622BBFEA1
:1026630006E92582F8E222E58229F582E5833AF537
:1026730083E49322EF8DF0A4A8F0CF8CF0A428CEAE
:102683008DF0A42EFE22E88FF0A4CC8BF0A42CFCBA
:10269300E98EF0A42CFC8AF0EDA42CFCEA8EF0A4C5
:1026A300CDA8F08BF0A42DCC3825F0FDE98FF0A454
:1026B3002CCD35F0FCEB8EF0A4FEA9F0EB8FF0A44B
:1026C300CFC5F02ECD39FEE43CFCEAA42DCE35F087
:1026D300FDE43CFC2275F008758200EF2FFFEE331A
:1026E300FECD33CDCC33CCC58233C5829BED9AEC82
:1026F30099E58298400CF582EE9BFEED9AFDEC99EC
:10270300FC0FD5F0D6E4CEFBE4CDFAE4CCF9A882F5
:1027130022B800C1B90059BA002DEC8BF084CFCE9A
:10272300CDFCE5F0CBF97818EF2FFFEE33FEED3358
:10273300FDEC33FCEB33FB10D703994004EB99FB1F
:102743000FD8E5E4F9FA227818EF2FFFEE33FEED08
:1027530033FDEC33FCC933C910D7059BE99A400715
:10276300EC9BFCE99AF90FD8E0E4C9FAE4CCFB222C
:1027730075F010EF2FFFEE33FEED33FDCC33CCC8F5
:1027830033C810D7079BEC9AE899400AED9BFDEC00
:102793009AFCE899F80FD5F0DAE4CDFBE4CCFAE43F
:1027A300C8F922EB9FF5F0EA9E42F0E99D42F0E87A
:1027B3009C45F022EC8EF0A4CCC5F0CCCDF8EFA470
:1027C300CEC5F02DFDE43CFCE8A42EC8C5F03DFDCC
:1027D300E43CFCEFA4FFE5F028FEE43DFDE43CFC13
:1027E30022BB010689828A83F0225002F722BBFEB4
:1027F30001F322FAE6FB0808E6F925F0F618E6CA23
:102803003AF622D083D082F8E49370127401937065
:102813000DA3A393F8740193F5828883E473740280
:10282300936860EFA3A3A380DF8F588E578D568CD8
:1028330055E47F4EFEFDFCAB58AA57A956A855D3C5
:102843001227A6500675590102299DE47FC47E0A0A
:10285300FDFCAB58AA57A956A855C31227A6401585
:10286300E47F5A7E0BFDFCA855D31227A6500675AC
:10287300590202299DE47F9A7E09FDFCAB58AA57B1
:10288300A956A855C31227A64015E47F307E0AFD3A
:10289300FCA855D31227A6500675590302299DE4B7
:1028A3007F277E06FDFCAB58AA57A956A855C3122D
:1028B30027A64015E47FBD7E06FDFCA855D312274D
:1028C300A6500675590402299DE47F717E07FDFC1D
:1028D300AB58AA57A956A855C31227A64015E47F9B
:1028E300077E08FDFCA855D31227A6500675590587
:1028F30002299DE47F7C7E08FDFCAB58AA57A956AC
:10290300A855C31227A64014E47F127E09FDFCA834
:1029130055D31227A65005755906807EE47FBE7EE7
:1029230006FDFCAB58AA57A956A855C31227A640C3
:1029330014E47F547E07FDFCA855D31227A6500547
:102943007559078055E47F4E7E05FDFCAB58AA57A9
:10295300A956A855C31227A64014E47FE47E05FDBB
:10296300FCA855D31227A65005755908802CE47F7F
:102973008B7E04FDFCAB58AA57A956A855C3122752
:10298300A64014E47F217E05FDFCA855D31227A69B
:1029930050057559098003E4F559AF59228E298FE3
:1029A3002A8C2B8D2C12318EE52A45297003022A9D
:1029B3009885292F852A30C3E52C952ACFE52B95B9
:1029C30029CF2401CF3400FEC3EF9410EE6480942A
:1029D300804060E4F52DF52EE5302410FFE4352F1B
:1029E300FEC3E52A9FEE6480F8E5296480984003DE
:1029F300022A8C7534FF75350075369DAE29AF2AD2
:102A03007C007D1112267774232FF974003E7537ED
:102A130001F53889397B017A0D797C122119122E3F
:102A2300F9052AE52A70020529052EE52E70A90568
:102A33002D80A5E4F52DF52EC3E52A952CE52B6411
:102A430080F8E52964809850407534FF753500752A
:102A5300369DAE29AF2A7C007D1112267774232F71
:102A6300F974003E753701F53889397B017A0D79A0
:102A73007C122119122EF9052AE52A70020529056F
:102A83002EE52E70B3052D80AFE53024FFF52AE542
:102A93002F34FFF529AF2A228E298F2A8C2B8D2CD8
:102AA30085292F852A3012318EC3E52C952ACFE54F
:102AB3002B9529CF2401CF3400FED3EF9410EE647D
:102AC3008094804061E4F52DF52EE5302410FFE479
:102AD300352FFEC3E52A9FEE6480F8E529648098CC
:102AE3004003022B86052AE52A700205297534FF67
:102AF30075350075369DAE29FF7C007D1112267752
:102B030074342FF974003E753701F53889397B0128
:102B13007A0D797C122119E52E122EFB052EE52E56
:102B230070A8052D80A4E4F52DF52EC3E52A952C78
:102B3300E52B6480F8E5296480985047052AE52A47
:102B4300700205297534FF75350075369DAE29FF72
:102B53007C007D1112267774342FF974003E75378B
:102B630001F53889397B017A0D797C1221197B01B2
:102B73007A0D797CE52E122F01052EE52E70AC051A
:102B83002D80A8E5302401F52AE4352FF529AF2A55
:102B9300228E378F388D398B3AAB3BAA3CA93D1235
:102BA30026317003022C6DF53EC3648094A0400966
:102BB300D3E53E648094FE4003753E20E539D3940B
:102BC300784003022C59AF3EEF3395E0FE75F06475
:102BD300E53AA42FF582E5F03EF583E582249BF5E3
:102BE30082E5833432F583E493FDE53913131354FB
:102BF3001F2538F540E43537F53F854082F583C01E
:102C030083C082E5395407FCE47EFFA804088005ED
:102C1300CEC313CE13D8F9F4FFEEF4FEE05EFEA3A9
:102C2300E05FFFD082D083EEF0A3EFF08540828592
:102C33003F83C083C082EDFEE4A804088005CEC3B1
:102C430013CE13D8F9FFE04EFEA3E04FFFD082D09E
:102C530083EEF0A3EFF07401253DF53DE4353CF53B
:102C63003C74062539F539022B9C22C0E0C0F0C024
:102C730083C082C0D075D000C000C001C002C003B1
:102C8300C004C005C006C00775A720E5F854F0F4DA
:102C9300440F52F8AF9BEF30E34DE5106031E5A1EF
:102CA30020E02C300A13851482851383E5A3F005F5
:102CB30014E51470070513800385A328D5100D3080
:102CC3000C05300902D2FA1231A28003851012E5F5
:102CD30011601430F911300B09A815E2F5A305159D
:102CE300800375A3001511D007D006D005D004D0FA
:102CF30003D002D001D000D0D0D082D083D0F0D086
:102D0300E032787FE4F6D8FD758170022D4C0231F4
:102D1300FEE493A3F8E493A34003F68001F208DFF3
:102D2300F48029E493A3F85407240CC8C333C45490
:102D33000F4420C8834004F456800146F6DFE48044
:102D43000B0102040810204080902D91E47E019332
:102D530060BCA3FF543F30E509541FFEE493A36016
:102D6300010ECF54C025E060A840B8E493A3FAE471
:102D730093A3F8E493A3C8C582C8CAC583CAF0A3C2
:102D8300C8C582C8CAC583CADFE9DEE780BE0216AA
:102D93000000011800011900021A0000C109C10C4A
:102DA300C10DC10AC10B0110000111000112000184
:102DB30015000213000002640000016F000170009F
:102DC300016C00016100026D16BD026803C350006F
:102DD30024000A00140032006400C801F403E80769
:102DE300D0016003025E006D016201025A0000021D
:102DF3005C000000C0E0C0F0C083C082C0D075D0CA
:102E030000C000C001C002C003C004C005C006C0AA
:102E13000753C87F53C8FBE518B401127518027F26
:102E2300008519277B02E4FDFC122E56800AE51863
:102E3300B40305C2A6751800D007D006D005D00488
:102E4300D003D002D001D000D0D0D082D083D0F034
:102E5300D0E0328527108527118527128F158C1313
:102E63008D14EB13920AEBA2E1920BAFA775A72087
:102E7300200D031231ED439A0453F80F539BEF4394
:102E83009A08300C05300902C2FA30F915E51160D1
:102E930011300B09A815E2F5A305158003E4F5A38A
:102EA30015118FA722C0E0C0F0C083C082C0D075C7
:102EB300D000C000C001C002C003C004C005C006EA
:102EC300C007123240D294C295BF0204D20E8005CD
:102ED300BF0408D20F756400756501D007D006D012
:102EE30005D004D003D002D001D000D0D0D082D0FE
:102EF30083D0F0D0E032E52E7B017A0D797C75F03A
:102F030008A4FDE4F5358B318A3289338D34E4F539
:102F1300367E007F141231DC7E007F1485313B85C1
:102F2300323C85333DAB36AD35122B94E534253633
:102F3300FF7B017A007914122FD60536E536C39448
:102F43000840CE22C0E0C083C082C0D075D00853F1
:102F5300987FE55F255DF55DE55E355CF55C25E015
:102F6300FFE433FEE56E2FF582E56D3EF583E493D2
:102F7300F552740193F55375A730AF538F848F893E
:102F8300AF528F858F8AD0D0D082D083D0E032C227
:102F9300D5E830E70FB2D5E4C39BFBE49AFAE49992
:102FA300F9E498F8EC30E717B2D5122FC8122714BA
:102FB300E4C39BFBE49AFAE499F9E498F8800312DA
:102FC300271430D50DE4C39FFFE49EFEE49DFDE48A
:102FD3009CFC228F378B388A39893A7F801230D410
:102FE3008F3BE53704FF1200468F3CE4FFAB38AA62
:102FF30039A93A8F8275830012264AFE743D2FF851
:10300300A6060FBF10E7E4F54DF54EFB7A00793BBA
:103013007D140230188B4F8A508951E51870FC7566
:1030230018018D19E4FFEFC39D5018AB4FAA50A9A7
:10303300518F8275830012264AFE74002FF8EEF238
:103043000F80E3AFA7E4F5A775CFFF75CEF4D2A643
:1030530043C8048FA72285A729123278120036129B
:1030630032301232821232AB12325E1231C9123254
:103073009D1232AF1232B31232A412328C12316269
:1030830012313312000312007612326B1232B7126E
:1030930031788529A7228F328D33E5336005753367
:1030A300FF8003E4F5337F801230D48F34E532049C
:1030B300FF1200468F35E4FF74362FF8A6330FBF97
:1030C30010F6E4F546F547FB7A0079347D140230B7
:1030D300188F4F12314CC3EF9517FDEE9516FCD3A5
:1030E300ED94C8EC94004007434F408E168F17AF02
:1030F3004F22AB07AA0612314C8F828E8312314CBA
:10310300C3EF9582FFEE9583FEC3EF9BEE9A40EDEE
:1031130022D2EC30EDFDC2EDAFBDAEBE7C0C7DE442
:103123001227B7E4FB7A04F9F812271412282C2289
:10313300E59154045391FB7595F87594067593F8CE
:10314300759206439104429122AFA775A71053E6E7
:103153007FAD1BAC1A43E6808FA7AE04AF0522AF49
:10316300885388AF758C01758D96EF5440FEEF54EC
:10317300104E42882275E68275F30475A71075EE2A
:103183008275ED04E4F5A775A86022E4F531E4FD4A
:10319300AF311230990531E531C3948040F0227587
:1031A3001803AFA7E4F5A775CFFF75CEFC43C8049A
:1031B3008FA722BF0A083099FDC29975990D3099DE
:1031C300FDC2998F9922E4F5B275BB0D75DF3F758A
:1031D300BC0875B90143E88022E4FDEF2DF582E4D4
:1031E3003EF583E4F00DBD10F222E5A1A2E6920CB8
:1031F300E5F8540C24FF9209D20D22123059D2AFB4
:10320300123250D2A2D29912241980FE10100B123E
:103213000025BF0D027F0A02002EAF1C22C0E0531F
:10322300917F051BE51B7002051AD0E03275A5716D
:1032330075F27D75D58E75EE8075ED7F2212311492
:103243008F54EF600512311480F8AF5422C2A6D216
:10325300B47F0A7E001230F502318EE4F5A775E3E0
:103263004075E10375E2032275A20B43A14053F8B5
:10327300F343F80122E4F5A77597DE7597AD227540
:10328300A64975A72075CC0922E4F5A9E5A930E77D
:10329300FB223098FDAF99C2982275A730759182B1
:1032A30022E4F5A775D1802275F49C2275938222BE
:1032B30075888022439810220020505020C06060FF
:1032C3001040000000000000702070F810F830F883
:1032D30070700000080080707070F070E0F8F87093
:1032E3008870388880888870F070F078F8888888CB
:1032F3008888F870007020004000800008003000CB
:1033030080201080600000000000000040000000EA
:10331300000000302060000000000000002050503A
:1033230078C89020202020200000000088608810AA
:10333300308040088888606010004088088888884A
:10334300908080888820109080D88888888888809A
:10335300208888888888084000105000200080005A
:103363000800487880000080200000000000000072
:10337300400000000000004020104000000000005A
:10338300002050F88010A0404010A8200000000842
:103393009820082050F080108888606020F820086A
:1033A3000888888088808080882010A080A8C888AA
:1033B30088888880208888885088104080108800FA
:1033C3001070B07068704088B060309020D0B070DA
:1033D300F068B070E08888888888F8402010A800DA
:1033E300000000000020005070204000401070F8E2
:1033F30000F80010A82010109008F020707800004A
:10340300400010106888F08088F0F0B8F82010C0F1
:1034130080A8A888F088F070208888A820502040D1
:10342300401000000008C8809888E088C82010A0D9
:1034330020A8C8888898C8804088888850881080C9
:103443002008100000000000000000F80840A80059
:103453004010A82060000020C8202008F8088840F9
:103463008808606020F82020A8F8888088808088F9
:10347300882010A08088988880A8A008208888A821
:1034830050204040201000000078888088F8407861
:10349300882010C020A88888F0788070408888A889
:1034A30020782040201000000000000000000050A1
:1034B300F098900020202020200060408820408841
:1034C300108888408810602010004000A8888888F1
:1034D3009080808888209090808888888090900849
:1034E300208850A888208040101000000088888819
:1034F30088804008882090A02088888880088008D9
:10350300489850A8500840402010000000000000D8
:103513000020005020186800104000004000608028
:103523007070F87010707040706000400800802068
:103533007088F070E0F8807088706088F888887010
:10354300806888F0207020508820F870087000FC94
:103553000078F07078704070887060907088887020
:10356300800880F0306820508870F83020600000B8
:103573000000000000000000000000000000000048
:103583000000000000000000000000000000000038
:103593000000000000000000000000000000000028
:1035A3000000000000000000000000000000000018
:1035B3000000000000000000000000000000000008
:1035C30000000000000000000000000000000000F8
:0835D3000000000000000000F0
:00000001FF
